:020000020000FC
:100000000FE701BB0EE107BB00E0502E00E0402EE1
:1000100000E0302E00E0202E10E00AE00F9302E016
:1000200008BB052D42D002BB0F912CD00F9304E0EA
:1000300008BB042D3AD002BB0F9124D00F9308E0E7
:1000400008BB032D32D002BB0F911CD00F9300E1EF
:1000500008BB022D2AD002BB0F9114D00F9323941A
:100060000AE0201669F422243394301649F433242C
:100070004394401629F444245394501609F455240B
:100080000F91CCCF9F938F93912F802F05D0019705
:10009000E9F78F919F9108958F939F9397E08EEC4E
:1000A0000197F1F79F918F910895EF93FF93ECEBF8
:1000B000F0E0E00F0491FF91EF9108953F065B4F50
:0600C000666D7D077F6FF5
:00000001FF
