:020000020000FC
:020000002BC013
:020008000FC027
:1000160000C08F938FB7039409F413948FBF8F9109
:1000260018950F931F932F933F934F934FB7002D20
:10003600112D002411241695079559D0202E312E06
:10004600422E532E4FBF4F913F912F911F910F91EB
:1000560018950F9300E20BBF01E000BD0F910F93BF
:100066001F930CE00EBD00E409BF01E11AE71BBDBA
:100076000ABD1F910F9122243324442455240F9145
:100086000FE701BB0EE107BB0F9378940F931F9305
:1000960002E008BB022D5AD002BB05E011275FD053
:1000A6001F910F910F931F9304E008BB032D4ED0B1
:1000B60002BB05E0112753D01F910F910F931F9399
:1000C60008E008BB042D42D002BB05E0112747D04B
:1000D6001F910F910F931F9300E108BB052D36D09A
:1000E60002BB05E011273BD01F910F91CFCF6F9335
:1000F6007F938F939F9328EE33E013D0622F24E6ED
:1001060030E00FD0722F2AE030E00BD0822F902FF4
:10011600062F172F282F392F9F918F917F916F913F
:1001260008958F939F93882799270217130720F026
:10013600021B130B0196F9CF392F282F9F918F9110
:1001460008953F065B4F666D7D07FF6FEF93FF9344
:10015600E8E4F1E0E00F0491FF91EF9108958F93A9
:100166009F93802F912F05D00197E9F79F918F914B
:1001760008958F939F9380ED97E00197F1F79F91F4
:040186008F910895B8
:00000001FF
