:020000020000FC
:0200000026C018
:020008000FC027
:1000160000C00F930FB7039409F413940FBF0F9109
:1000260018950F931F932F933F934F934FB78001CC
:100036001124002458D0180129014FBF4F913F9138
:100046002F911F910F911895F8940F9300E20BBF13
:1000560001E000BD0F910F931F930CE00EBD00E46D
:1000660009BF01E11AE71BBD0ABD1F910F912224AA
:100076003324442455240F930EE107BB0FE701BB3D
:100086000F9178940F931F9302E008BB022D59D06D
:1000960002BB05E010E05ED01F910F910F931F93F6
:1000A60004E008BB032D4DD002BB05E010E052D0A2
:1000B6001F910F910F931F9308E008BB042D41D0A9
:1000C60002BB05E010E046D01F910F910F931F93DE
:1000D60000E108BB052D35D002BB05E010E03AD0A3
:1000E6001F910F91CFCF6F937F938F939F9328EE9E
:1000F60033E013D0622F24E630E00FD0722F2AE0CF
:1001060030E00BD0822F902F062F172F282F392F54
:100116009F918F917F916F9108958F939F939927C8
:1001260088270217130720F0021B130B0196F9CF3D
:100136009C019F918F9108953F065B4F666D7D07E9
:10014600FF6FEF93FF93EEE3F1E0E00F0491FF9171
:10015600EF9108958F939F93C80105D00197E9F712
:100166009F918F9108958F939F9380ED97E00197CC
:08017600F1F79F918F910895AC
:00000001FF
