:020000020000FC
:100000000FE70EE199E088E077E066E0592E482E90
:10001000372E262E41BB57BB10E005E042BB0F93A5
:1000200052E0052D2CD002BB58BB16D00F9354E0E4
:10003000042D25D002BB58BB0FD00F9358E0032DE1
:100040001ED002BB58BB08D00F9350E1022D17D031
:1000500002BB58BB01D0E3CF9F938F93912F802F8A
:1000600005D00197E9F78F919F9108958F939F9302
:1000700097E08EEC0197F1F79F918F910895EF93A0
:10008000FF93E2E9F0E0E00F04911F91FF91EF91FF
:0C00900008953F065B4F666D7D077F6F93
:00000001FF
