:020000020000FC
:100000004FE75EE199E088E077E066E0592E482E00
:10001000372E262E41BB57BB10E005E042BB52E015
:10002000252D29D022BB58BB13D054E0242D23D03A
:1000300022BB58BB0DD058E0232D1DD022BB58BB8E
:1000400007D050E1222D17D022BB58BB01D0E7CFFB
:100050009F938F93912F802F05D00197E9F78F9170
:100060009F9108958F939F9397E08EEC0197F1F7FE
:100070009F918F910895EF93FF933F9330E0E0E9D4
:10008000F0E0E20FF31F24911F91FF91EF9108958B
:0A0090003F065B4F666D7D077F6F32
:00000001FF
