:020000020000FC
:0200000006C038
:1000080000C0039418950FE701BB0EE107BB00245D
:10001800112410E005E00F9302E008BB052D52D033
:1000280002BB0F913CD00F9304E008BB042D4AD0CB
:1000380002BB0F9134D00F9308E008BB032D42D0C8
:1000480002BB0F912CD00F9300E108BB022D3AD0D0
:1000580002BB0F9124D08F939F93AF93BF93802DB2
:10006800912DB3E0A8EE01968A179B0711F4882713
:100078009927082E192EBF91AF919F918F910F93B9
:100088001F932F933F93002D112D3ED0502E412EBC
:10009800322E232E3F912F911F910F91BCCF9F930A
:1000A8008F93912F802F05D00197E9F78F919F911A
:1000B80008958F939F9397E08EEC0197F1F79F91A6
:1000C8008F910895EF93FF931F9310E0E6EEF0E011
:1000D800E00FF11F04911F91FF91EF9108953F06E2
:1000E8005B4F666D7D077F6F8F939F938827992756
:1000F8000217130720F0021B130B0196F9CF392FB3
:10010800282F9F918F9108959F938F937F936F933B
:1001180028EE33E0E9DF622F002F112F24E630E0CC
:10012800E3DF722F002F112F2AE030E0DDDF822F6E
:10013800902F062F172F282F392F6F917F918F918E
:040148009F910895E6
:00000001FF
