:020000020000FC
:020000002CC012
:0200080007C02F
:1000160017C00F931F932F933F934F934FB78001B2
:1000260016950795112400248CD0502E412E322E81
:10003600232E4FBF4F913F912F911F910F911895EE
:100046008F939F938FB7039409F413948FBF9F9157
:100056008F9118950FE701BB0EE107BB0024112411
:1000660055244424332422240F93F89400E20BBF32
:1000760001E000BD78940F910F931F930CE00EBD25
:1000860000E409BF1AE701E11BBD0ABD78941F9180
:100096000F9110E005E00F9302E008BB052D2FD06D
:1000A60002BB0F9119D00F9304E008BB042D27D093
:1000B60002BB0F9111D00F9308E008BB032D1FD090
:1000C60002BB0F9109D00F9300E108BB022D17D098
:1000D60002BB0F9101D0DFCF9F938F93912F802F7B
:1000E60005D00197E9F78F919F9108958F939F937C
:1000F60097E08EEC0197F1F79F918F910895EF931A
:10010600FF931F9310E0EEE1F1E0E00FF11F049181
:100116001F91FF91EF9108953F065B4F666D7D0736
:100126007F6F8F939F93882799270217130720F0D5
:10013600021B130B0196F9CF392F282F9F918F9110
:1001460008959F938F937F936F9328EE33E0E9DFB3
:10015600622F002F112F24E630E0E3DF722F002FED
:10016600112F2AE030E0DDDF822F902F062F172F88
:0E017600282F392F6F917F918F919F910895BF
:00000001FF
